{
  "_format": "hh-sol-artifact-1",
  "contractName": "CarteGriseNFT",
  "sourceName": "contracts/CarteGriseNFT.sol",
  "abi": [
    {
      "inputs": [],
      "stateMutability": "nonpayable",
      "type": "constructor"
    },
    {
      "inputs": [
        {
          "internalType": "address",
          "name": "sender",
          "type": "address"
        },
        {
          "internalType": "uint256",
          "name": "tokenId",
          "type": "uint256"
        },
        {
          "internalType": "address",
          "name": "owner",
          "type": "address"
        }
      ],
      "name": "ERC721IncorrectOwner",
      "type": "error"
    },
    {
      "inputs": [
        {
          "internalType": "address",
          "name": "operator",
          "type": "address"
        },
        {
          "internalType": "uint256",
          "name": "tokenId",
          "type": "uint256"
        }
      ],
      "name": "ERC721InsufficientApproval",
      "type": "error"
    },
    {
      "inputs": [
        {
          "internalType": "address",
          "name": "approver",
          "type": "address"
        }
      ],
      "name": "ERC721InvalidApprover",
      "type": "error"
    },
    {
      "inputs": [
        {
          "internalType": "address",
          "name": "operator",
          "type": "address"
        }
      ],
      "name": "ERC721InvalidOperator",
      "type": "error"
    },
    {
      "inputs": [
        {
          "internalType": "address",
          "name": "owner",
          "type": "address"
        }
      ],
      "name": "ERC721InvalidOwner",
      "type": "error"
    },
    {
      "inputs": [
        {
          "internalType": "address",
          "name": "receiver",
          "type": "address"
        }
      ],
      "name": "ERC721InvalidReceiver",
      "type": "error"
    },
    {
      "inputs": [
        {
          "internalType": "address",
          "name": "sender",
          "type": "address"
        }
      ],
      "name": "ERC721InvalidSender",
      "type": "error"
    },
    {
      "inputs": [
        {
          "internalType": "uint256",
          "name": "tokenId",
          "type": "uint256"
        }
      ],
      "name": "ERC721NonexistentToken",
      "type": "error"
    },
    {
      "inputs": [
        {
          "internalType": "address",
          "name": "owner",
          "type": "address"
        }
      ],
      "name": "OwnableInvalidOwner",
      "type": "error"
    },
    {
      "inputs": [
        {
          "internalType": "address",
          "name": "account",
          "type": "address"
        }
      ],
      "name": "OwnableUnauthorizedAccount",
      "type": "error"
    },
    {
      "anonymous": false,
      "inputs": [
        {
          "indexed": true,
          "internalType": "address",
          "name": "owner",
          "type": "address"
        },
        {
          "indexed": true,
          "internalType": "address",
          "name": "approved",
          "type": "address"
        },
        {
          "indexed": true,
          "internalType": "uint256",
          "name": "tokenId",
          "type": "uint256"
        }
      ],
      "name": "Approval",
      "type": "event"
    },
    {
      "anonymous": false,
      "inputs": [
        {
          "indexed": true,
          "internalType": "address",
          "name": "owner",
          "type": "address"
        },
        {
          "indexed": true,
          "internalType": "address",
          "name": "operator",
          "type": "address"
        },
        {
          "indexed": false,
          "internalType": "bool",
          "name": "approved",
          "type": "bool"
        }
      ],
      "name": "ApprovalForAll",
      "type": "event"
    },
    {
      "anonymous": false,
      "inputs": [
        {
          "indexed": false,
          "internalType": "uint256",
          "name": "_fromTokenId",
          "type": "uint256"
        },
        {
          "indexed": false,
          "internalType": "uint256",
          "name": "_toTokenId",
          "type": "uint256"
        }
      ],
      "name": "BatchMetadataUpdate",
      "type": "event"
    },
    {
      "anonymous": false,
      "inputs": [
        {
          "indexed": false,
          "internalType": "uint256",
          "name": "_tokenId",
          "type": "uint256"
        }
      ],
      "name": "MetadataUpdate",
      "type": "event"
    },
    {
      "anonymous": false,
      "inputs": [
        {
          "indexed": true,
          "internalType": "address",
          "name": "previousOwner",
          "type": "address"
        },
        {
          "indexed": true,
          "internalType": "address",
          "name": "newOwner",
          "type": "address"
        }
      ],
      "name": "OwnershipTransferred",
      "type": "event"
    },
    {
      "anonymous": false,
      "inputs": [
        {
          "indexed": true,
          "internalType": "address",
          "name": "from",
          "type": "address"
        },
        {
          "indexed": true,
          "internalType": "address",
          "name": "to",
          "type": "address"
        },
        {
          "indexed": true,
          "internalType": "uint256",
          "name": "tokenId",
          "type": "uint256"
        }
      ],
      "name": "Transfer",
      "type": "event"
    },
    {
      "inputs": [
        {
          "internalType": "address",
          "name": "to",
          "type": "address"
        },
        {
          "internalType": "uint256",
          "name": "tokenId",
          "type": "uint256"
        }
      ],
      "name": "approve",
      "outputs": [],
      "stateMutability": "nonpayable",
      "type": "function"
    },
    {
      "inputs": [
        {
          "internalType": "address",
          "name": "owner",
          "type": "address"
        }
      ],
      "name": "balanceOf",
      "outputs": [
        {
          "internalType": "uint256",
          "name": "",
          "type": "uint256"
        }
      ],
      "stateMutability": "view",
      "type": "function"
    },
    {
      "inputs": [
        {
          "internalType": "uint256",
          "name": "tokenId",
          "type": "uint256"
        }
      ],
      "name": "getApproved",
      "outputs": [
        {
          "internalType": "address",
          "name": "",
          "type": "address"
        }
      ],
      "stateMutability": "view",
      "type": "function"
    },
    {
      "inputs": [
        {
          "internalType": "address",
          "name": "owner",
          "type": "address"
        },
        {
          "internalType": "address",
          "name": "operator",
          "type": "address"
        }
      ],
      "name": "isApprovedForAll",
      "outputs": [
        {
          "internalType": "bool",
          "name": "",
          "type": "bool"
        }
      ],
      "stateMutability": "view",
      "type": "function"
    },
    {
      "inputs": [
        {
          "internalType": "address",
          "name": "",
          "type": "address"
        }
      ],
      "name": "isConcessionnaire",
      "outputs": [
        {
          "internalType": "bool",
          "name": "",
          "type": "bool"
        }
      ],
      "stateMutability": "view",
      "type": "function"
    },
    {
      "inputs": [
        {
          "internalType": "address",
          "name": "to",
          "type": "address"
        },
        {
          "internalType": "string",
          "name": "vin",
          "type": "string"
        },
        {
          "internalType": "string",
          "name": "brand",
          "type": "string"
        },
        {
          "internalType": "string",
          "name": "model",
          "type": "string"
        },
        {
          "internalType": "uint256",
          "name": "mileage",
          "type": "uint256"
        },
        {
          "internalType": "string",
          "name": "tokenURI",
          "type": "string"
        }
      ],
      "name": "mintCarteGrise",
      "outputs": [
        {
          "internalType": "uint256",
          "name": "",
          "type": "uint256"
        }
      ],
      "stateMutability": "nonpayable",
      "type": "function"
    },
    {
      "inputs": [],
      "name": "name",
      "outputs": [
        {
          "internalType": "string",
          "name": "",
          "type": "string"
        }
      ],
      "stateMutability": "view",
      "type": "function"
    },
    {
      "inputs": [],
      "name": "owner",
      "outputs": [
        {
          "internalType": "address",
          "name": "",
          "type": "address"
        }
      ],
      "stateMutability": "view",
      "type": "function"
    },
    {
      "inputs": [
        {
          "internalType": "uint256",
          "name": "tokenId",
          "type": "uint256"
        }
      ],
      "name": "ownerOf",
      "outputs": [
        {
          "internalType": "address",
          "name": "",
          "type": "address"
        }
      ],
      "stateMutability": "view",
      "type": "function"
    },
    {
      "inputs": [],
      "name": "renounceOwnership",
      "outputs": [],
      "stateMutability": "nonpayable",
      "type": "function"
    },
    {
      "inputs": [
        {
          "internalType": "address",
          "name": "from",
          "type": "address"
        },
        {
          "internalType": "address",
          "name": "to",
          "type": "address"
        },
        {
          "internalType": "uint256",
          "name": "tokenId",
          "type": "uint256"
        }
      ],
      "name": "safeTransferFrom",
      "outputs": [],
      "stateMutability": "nonpayable",
      "type": "function"
    },
    {
      "inputs": [
        {
          "internalType": "address",
          "name": "from",
          "type": "address"
        },
        {
          "internalType": "address",
          "name": "to",
          "type": "address"
        },
        {
          "internalType": "uint256",
          "name": "tokenId",
          "type": "uint256"
        },
        {
          "internalType": "bytes",
          "name": "data",
          "type": "bytes"
        }
      ],
      "name": "safeTransferFrom",
      "outputs": [],
      "stateMutability": "nonpayable",
      "type": "function"
    },
    {
      "inputs": [
        {
          "internalType": "address",
          "name": "operator",
          "type": "address"
        },
        {
          "internalType": "bool",
          "name": "approved",
          "type": "bool"
        }
      ],
      "name": "setApprovalForAll",
      "outputs": [],
      "stateMutability": "nonpayable",
      "type": "function"
    },
    {
      "inputs": [
        {
          "internalType": "address",
          "name": "user",
          "type": "address"
        },
        {
          "internalType": "bool",
          "name": "status",
          "type": "bool"
        }
      ],
      "name": "setConcessionnaire",
      "outputs": [],
      "stateMutability": "nonpayable",
      "type": "function"
    },
    {
      "inputs": [
        {
          "internalType": "bytes4",
          "name": "interfaceId",
          "type": "bytes4"
        }
      ],
      "name": "supportsInterface",
      "outputs": [
        {
          "internalType": "bool",
          "name": "",
          "type": "bool"
        }
      ],
      "stateMutability": "view",
      "type": "function"
    },
    {
      "inputs": [],
      "name": "symbol",
      "outputs": [
        {
          "internalType": "string",
          "name": "",
          "type": "string"
        }
      ],
      "stateMutability": "view",
      "type": "function"
    },
    {
      "inputs": [
        {
          "internalType": "uint256",
          "name": "tokenId",
          "type": "uint256"
        }
      ],
      "name": "tokenURI",
      "outputs": [
        {
          "internalType": "string",
          "name": "",
          "type": "string"
        }
      ],
      "stateMutability": "view",
      "type": "function"
    },
    {
      "inputs": [
        {
          "internalType": "address",
          "name": "from",
          "type": "address"
        },
        {
          "internalType": "address",
          "name": "to",
          "type": "address"
        },
        {
          "internalType": "uint256",
          "name": "tokenId",
          "type": "uint256"
        }
      ],
      "name": "transferFrom",
      "outputs": [],
      "stateMutability": "nonpayable",
      "type": "function"
    },
    {
      "inputs": [
        {
          "internalType": "address",
          "name": "newOwner",
          "type": "address"
        }
      ],
      "name": "transferOwnership",
      "outputs": [],
      "stateMutability": "nonpayable",
      "type": "function"
    },
    {
      "inputs": [
        {
          "internalType": "uint256",
          "name": "",
          "type": "uint256"
        }
      ],
      "name": "vehicleData",
      "outputs": [
        {
          "internalType": "string",
          "name": "vin",
          "type": "string"
        },
        {
          "internalType": "string",
          "name": "brand",
          "type": "string"
        },
        {
          "internalType": "string",
          "name": "model",
          "type": "string"
        },
        {
          "internalType": "uint256",
          "name": "mileage",
          "type": "uint256"
        }
      ],
      "stateMutability": "view",
      "type": "function"
    }
  ],
  "bytecode": "0x608060405234801561001057600080fd5b50336040518060400160405280600d81526020016c10d85c9d1951dc9a5cd9539195609a1b8152506040518060400160405280600581526020016410d1d3919560da1b815250816000908161006591906101a3565b50600161007282826101a3565b5050506001600160a01b0381166100a357604051631e4fbdf760e01b81526000600482015260240160405180910390fd5b6100ac816100b2565b50610261565b600780546001600160a01b038381166001600160a01b0319831681179093556040519116919082907f8be0079c531659141344cd1fd0a4f28419497f9722a3daafe3b4186f6b6457e090600090a35050565b634e487b7160e01b600052604160045260246000fd5b600181811c9082168061012e57607f821691505b60208210810361014e57634e487b7160e01b600052602260045260246000fd5b50919050565b601f82111561019e57806000526020600020601f840160051c8101602085101561017b5750805b601f840160051c820191505b8181101561019b5760008155600101610187565b50505b505050565b81516001600160401b038111156101bc576101bc610104565b6101d0816101ca845461011a565b84610154565b6020601f82116001811461020457600083156101ec5750848201515b600019600385901b1c1916600184901b17845561019b565b600084815260208120601f198516915b828110156102345787850151825560209485019460019092019101610214565b50848210156102525786840151600019600387901b60f8161c191681555b50505050600190811b01905550565b611827806102706000396000f3fe608060405234801561001057600080fd5b506004361061012c5760003560e01c80636352211e116100ad578063a22cb46511610071578063a22cb46514610295578063b88d4fde146102a8578063c87b56dd146102bb578063e985e9c5146102ce578063f2fde38b146102e157600080fd5b80636352211e1461024e57806370a0823114610261578063715018a6146102745780638da5cb5b1461027c57806395d89b411461028d57600080fd5b806323b872dd116100f457806323b872dd146101d15780633e986097146101e457806342842e0e1461020557806346466a55146102185780635556eff91461023b57600080fd5b806301ffc9a7146101315780630409d1121461015957806306fdde031461017c578063081812fc14610191578063095ea7b3146101bc575b600080fd5b61014461013f36600461120b565b6102f4565b60405190151581526020015b60405180910390f35b61016c610167366004611228565b61031f565b6040516101509493929190611291565b6101846104df565b60405161015091906112dc565b6101a461019f366004611228565b610571565b6040516001600160a01b039091168152602001610150565b6101cf6101ca36600461130b565b61059a565b005b6101cf6101df366004611335565b6105a9565b6101f76101f2366004611422565b610639565b604051908152602001610150565b6101cf610213366004611335565b610752565b6101446102263660046114fb565b60096020526000908152604090205460ff1681565b6101cf610249366004611516565b610772565b6101a461025c366004611228565b6107a5565b6101f761026f3660046114fb565b6107b0565b6101cf6107f8565b6007546001600160a01b03166101a4565b61018461080c565b6101cf6102a3366004611516565b61081b565b6101cf6102b6366004611552565b610826565b6101846102c9366004611228565b61083e565b6101446102dc3660046115ce565b61094f565b6101cf6102ef3660046114fb565b61097d565b60006001600160e01b03198216632483248360e11b14806103195750610319826109bb565b92915050565b600a6020526000908152604090208054819061033a90611601565b80601f016020809104026020016040519081016040528092919081815260200182805461036690611601565b80156103b35780601f10610388576101008083540402835291602001916103b3565b820191906000526020600020905b81548152906001019060200180831161039657829003601f168201915b5050505050908060010180546103c890611601565b80601f01602080910402602001604051908101604052809291908181526020018280546103f490611601565b80156104415780601f1061041657610100808354040283529160200191610441565b820191906000526020600020905b81548152906001019060200180831161042457829003601f168201915b50505050509080600201805461045690611601565b80601f016020809104026020016040519081016040528092919081815260200182805461048290611601565b80156104cf5780601f106104a4576101008083540402835291602001916104cf565b820191906000526020600020905b8154815290600101906020018083116104b257829003601f168201915b5050505050908060030154905084565b6060600080546104ee90611601565b80601f016020809104026020016040519081016040528092919081815260200182805461051a90611601565b80156105675780601f1061053c57610100808354040283529160200191610567565b820191906000526020600020905b81548152906001019060200180831161054a57829003601f168201915b5050505050905090565b600061057c82610a0b565b506000828152600460205260409020546001600160a01b0316610319565b6105a5828233610a44565b5050565b6001600160a01b0382166105d857604051633250574960e11b8152600060048201526024015b60405180910390fd5b60006105e5838333610a51565b9050836001600160a01b0316816001600160a01b031614610633576040516364283d7b60e01b81526001600160a01b03808616600483015260248201849052821660448201526064016105cf565b50505050565b3360009081526009602052604081205460ff166106a45760405162461bcd60e51b8152602060048201526024808201527f4e6f7420617574686f72697a65643a206f6e6c7920636f6e63657373696f6e6e6044820152636169726560e01b60648201526084016105cf565b6008546106b18882610b4a565b6106bb8184610baf565b604080516080810182528881526020808201899052818301889052606082018790526000848152600a90915291909120815181906106f99082611682565b506020820151600182019061070e9082611682565b50604082015160028201906107239082611682565b50606091909101516003909101556008805490600061074183611741565b909155509098975050505050505050565b61076d83838360405180602001604052806000815250610826565b505050565b61077a610bff565b6001600160a01b03919091166000908152600960205260409020805460ff1916911515919091179055565b600061031982610a0b565b60006001600160a01b0382166107dc576040516322718ad960e21b8152600060048201526024016105cf565b506001600160a01b031660009081526003602052604090205490565b610800610bff565b61080a6000610c2c565b565b6060600180546104ee90611601565b6105a5338383610c7e565b6108318484846105a9565b6106333385858585610d1d565b606061084982610a0b565b506000828152600660205260408120805461086390611601565b80601f016020809104026020016040519081016040528092919081815260200182805461088f90611601565b80156108dc5780601f106108b1576101008083540402835291602001916108dc565b820191906000526020600020905b8154815290600101906020018083116108bf57829003601f168201915b5050505050905060006108fa60408051602081019091526000815290565b9050805160000361090c575092915050565b81511561093e578082604051602001610926929190611768565b60405160208183030381529060405292505050919050565b61094784610e48565b949350505050565b6001600160a01b03918216600090815260056020908152604080832093909416825291909152205460ff1690565b610985610bff565b6001600160a01b0381166109af57604051631e4fbdf760e01b8152600060048201526024016105cf565b6109b881610c2c565b50565b60006001600160e01b031982166380ac58cd60e01b14806109ec57506001600160e01b03198216635b5e139f60e01b145b8061031957506301ffc9a760e01b6001600160e01b0319831614610319565b6000818152600260205260408120546001600160a01b03168061031957604051637e27328960e01b8152600481018490526024016105cf565b61076d8383836001610ebd565b6000828152600260205260408120546001600160a01b0390811690831615610a7e57610a7e818486610fc3565b6001600160a01b03811615610abc57610a9b600085600080610ebd565b6001600160a01b038116600090815260036020526040902080546000190190555b6001600160a01b03851615610aeb576001600160a01b0385166000908152600360205260409020805460010190555b60008481526002602052604080822080546001600160a01b0319166001600160a01b0389811691821790925591518793918516917fddf252ad1be2c89b69c2b068fc378daa952ba7f163c4a11628f55a4df523b3ef91a4949350505050565b6001600160a01b038216610b7457604051633250574960e11b8152600060048201526024016105cf565b6000610b8283836000610a51565b90506001600160a01b0381161561076d576040516339e3563760e11b8152600060048201526024016105cf565b6000828152600660205260409020610bc78282611682565b506040518281527ff8e1a15aba9398e019f0b49df1a4fde98ee17ae345cb5f6b5e2c27f5033e8ce79060200160405180910390a15050565b6007546001600160a01b0316331461080a5760405163118cdaa760e01b81523360048201526024016105cf565b600780546001600160a01b038381166001600160a01b0319831681179093556040519116919082907f8be0079c531659141344cd1fd0a4f28419497f9722a3daafe3b4186f6b6457e090600090a35050565b6001600160a01b038216610cb057604051630b61174360e31b81526001600160a01b03831660048201526024016105cf565b6001600160a01b03838116600081815260056020908152604080832094871680845294825291829020805460ff191686151590811790915591519182527f17307eab39ab6107e8899845ad3d59bd9653f200f220920489ca2b5937696c31910160405180910390a3505050565b6001600160a01b0383163b15610e4157604051630a85bd0160e11b81526001600160a01b0384169063150b7a0290610d5f908890889087908790600401611797565b6020604051808303816000875af1925050508015610d9a575060408051601f3d908101601f19168201909252610d97918101906117d4565b60015b610e03573d808015610dc8576040519150601f19603f3d011682016040523d82523d6000602084013e610dcd565b606091505b508051600003610dfb57604051633250574960e11b81526001600160a01b03851660048201526024016105cf565b805181602001fd5b6001600160e01b03198116630a85bd0160e11b14610e3f57604051633250574960e11b81526001600160a01b03851660048201526024016105cf565b505b5050505050565b6060610e5382610a0b565b506000610e6b60408051602081019091526000815290565b90506000815111610e8b5760405180602001604052806000815250610eb6565b80610e9584611027565b604051602001610ea6929190611768565b6040516020818303038152906040525b9392505050565b8080610ed157506001600160a01b03821615155b15610f93576000610ee184610a0b565b90506001600160a01b03831615801590610f0d5750826001600160a01b0316816001600160a01b031614155b8015610f205750610f1e818461094f565b155b15610f495760405163a9fbf51f60e01b81526001600160a01b03841660048201526024016105cf565b8115610f915783856001600160a01b0316826001600160a01b03167f8c5be1e5ebec7d5bd14f71427d1e84f3dd0314c0f7b2291e5b200ac8c7c3b92560405160405180910390a45b505b5050600090815260046020526040902080546001600160a01b0319166001600160a01b0392909216919091179055565b610fce8383836110ba565b61076d576001600160a01b038316610ffc57604051637e27328960e01b8152600481018290526024016105cf565b60405163177e802f60e01b81526001600160a01b0383166004820152602481018290526044016105cf565b606060006110348361111d565b600101905060008167ffffffffffffffff81111561105457611054611372565b6040519080825280601f01601f19166020018201604052801561107e576020820181803683370190505b5090508181016020015b600019016f181899199a1a9b1b9c1cb0b131b232b360811b600a86061a8153600a850494508461108857509392505050565b60006001600160a01b038316158015906109475750826001600160a01b0316846001600160a01b031614806110f457506110f4848461094f565b806109475750506000908152600460205260409020546001600160a01b03908116911614919050565b60008072184f03e93ff9f4daa797ed6e38ed64bf6a1f0160401b831061115c5772184f03e93ff9f4daa797ed6e38ed64bf6a1f0160401b830492506040015b6d04ee2d6d415b85acef81000000008310611188576d04ee2d6d415b85acef8100000000830492506020015b662386f26fc1000083106111a657662386f26fc10000830492506010015b6305f5e10083106111be576305f5e100830492506008015b61271083106111d257612710830492506004015b606483106111e4576064830492506002015b600a83106103195760010192915050565b6001600160e01b0319811681146109b857600080fd5b60006020828403121561121d57600080fd5b8135610eb6816111f5565b60006020828403121561123a57600080fd5b5035919050565b60005b8381101561125c578181015183820152602001611244565b50506000910152565b6000815180845261127d816020860160208601611241565b601f01601f19169290920160200192915050565b6080815260006112a46080830187611265565b82810360208401526112b68187611265565b905082810360408401526112ca8186611265565b91505082606083015295945050505050565b602081526000610eb66020830184611265565b80356001600160a01b038116811461130657600080fd5b919050565b6000806040838503121561131e57600080fd5b611327836112ef565b946020939093013593505050565b60008060006060848603121561134a57600080fd5b611353846112ef565b9250611361602085016112ef565b929592945050506040919091013590565b634e487b7160e01b600052604160045260246000fd5b60008067ffffffffffffffff8411156113a3576113a3611372565b50604051601f19601f85018116603f0116810181811067ffffffffffffffff821117156113d2576113d2611372565b6040528381529050808284018510156113ea57600080fd5b83836020830137600060208583010152509392505050565b600082601f83011261141357600080fd5b610eb683833560208501611388565b60008060008060008060c0878903121561143b57600080fd5b611444876112ef565b9550602087013567ffffffffffffffff81111561146057600080fd5b61146c89828a01611402565b955050604087013567ffffffffffffffff81111561148957600080fd5b61149589828a01611402565b945050606087013567ffffffffffffffff8111156114b257600080fd5b6114be89828a01611402565b9350506080870135915060a087013567ffffffffffffffff8111156114e257600080fd5b6114ee89828a01611402565b9150509295509295509295565b60006020828403121561150d57600080fd5b610eb6826112ef565b6000806040838503121561152957600080fd5b611532836112ef565b91506020830135801515811461154757600080fd5b809150509250929050565b6000806000806080858703121561156857600080fd5b611571856112ef565b935061157f602086016112ef565b925060408501359150606085013567ffffffffffffffff8111156115a257600080fd5b8501601f810187136115b357600080fd5b6115c287823560208401611388565b91505092959194509250565b600080604083850312156115e157600080fd5b6115ea836112ef565b91506115f8602084016112ef565b90509250929050565b600181811c9082168061161557607f821691505b60208210810361163557634e487b7160e01b600052602260045260246000fd5b50919050565b601f82111561076d57806000526020600020601f840160051c810160208510156116625750805b601f840160051c820191505b81811015610e41576000815560010161166e565b815167ffffffffffffffff81111561169c5761169c611372565b6116b0816116aa8454611601565b8461163b565b6020601f8211600181146116e457600083156116cc5750848201515b600019600385901b1c1916600184901b178455610e41565b600084815260208120601f198516915b8281101561171457878501518255602094850194600190920191016116f4565b50848210156117325786840151600019600387901b60f8161c191681555b50505050600190811b01905550565b60006001820161176157634e487b7160e01b600052601160045260246000fd5b5060010190565b6000835161177a818460208801611241565b83519083019061178e818360208801611241565b01949350505050565b6001600160a01b03858116825284166020820152604081018390526080606082018190526000906117ca90830184611265565b9695505050505050565b6000602082840312156117e657600080fd5b8151610eb6816111f556fea2646970667358221220a2092e6b0b74e8a0345df7b49aae65350a8320c018774b0d2a03a0512db05a5164736f6c634300081c0033",
  "linkReferences": {},
  "deployedLinkReferences": {}
}